:020000040000FA
:10000000D01600207D010000990100006101000070
:1000100000000000000000000000000000000000E0
:100020000000000000000000000000009D01000032
:1000300000000000000000009F0100002D090000EA
:10004000A3010000A3010000A3010000A301000020
:10005000A3010000A3010000A3010000A301000010
:10006000250A0000A3010000A3010000A301000075
:10007000A3010000950A0000A3010000A3010000F5
:10008000A3010000A3010000A3010000A3010000E0
:10009000A3010000A3010000A3010000A3010000D0
:1000A00000000000A3010000A3010000A301000064
:1000B000A3010000A3010000A3010000A3010000B0
:1000C00000F002F800F03DF80CA030C80838241801
:1000D0002D18A246671EAB4654465D46AC4201D180
:1000E00000F02FF87E460F3E0FCCB6460126334275
:1000F00000D0FB1AA246AB4633431847E80C000079
:10010000080D00000023002400250026103A01D32A
:1001100078C1FBD8520700D330C100D50B607047BF
:1001200010B5642902D100F067F810BD782902D11A
:1001300000F098F810BD002010BD1FB51FBD10B510
:1001400010BD00F08BFA1146FFF7F7FF00F0BEFD7F
:1001500000F0A3FA03B4FFF7F2FF03BC00F0AAFA21
:1001600004207146084202D0EFF3098001E0EFF36A
:1001700008807146004A1047AD0700000C480D4941
:1001800001600D4901600D4901600D4A0D49116082
:10019000002101600C480047FEE7FEE7FEE7FEE7AE
:1001A000FEE7FEE709480A490A4A0B4B7047000080
:1001B00000010050590000001600000088000000F7
:1001C00060000050A55A0000C1000000D00C0020C3
:1001D000D0160020D0110020D01100200FB4054906
:1001E00010B503AA029800F0F9F910BC08BC04B0DD
:1001F000184700005C0C0020F7B500257529106831
:10020000009914A611D0C046C046002802DA404228
:1002100011A608E0009909688A0701D50FA602E037
:10022000490704D50EA6012501E0C046C046009F3F
:100230000024243704E000F0E5F930313955641C1E
:100240000028F8D12B4632462146009800F06DF97F
:10025000FEBD0000000000002D0000002B0000008B
:100260002000000070B504460D4621461068C046C7
:10027000C0462188090502D50F4A7A4402E00E4A99
:100280007A440E3223460021243305E00607000994
:10029000360F965D5E54491C0028F7D12078002364
:1002A000000705D5702D03D0002901D0022311329B
:1002B000204600F03AF970BD3E0B0000F3B504464D
:1002C000002081B020622046E168884700287AD06B
:1002D000252802D06268A16871E0E1682046002507
:1002E000884706460020E0610746A0612A2E0AD012
:1002F000304600F031FC002827D0B8000019303E0D
:100300000090866119E00298BA00121902C8916142
:1003100002902046E1688847012F064617D1E06920
:1003200000281FDA202085431CE000980A218069FC
:10033000484300998019303888612046E168884731
:10034000064600F009FC0028EFD1012F0AD02E2E1E
:1003500008D12046E16888470646202005437F1CD7
:10036000022FC3DBA069002803DA4042A06101200C
:100370000543E80701D010208543002E23D03046E6
:100380004138192803D80120C002054320362046F1
:1003900025603146029A1546FFF7C2FE00280BD0B1
:1003A000012806D0ED1DE808C000083002908AE759
:1003B00009E02D1D029586E762683046A1689047E6
:1003C000206A401C7EE7206AFEBD002203098B42A2
:1003D0002CD3030A8B4211D300239C464EE00346E4
:1003E0000B433CD4002243088B4231D303098B4298
:1003F0001CD3030A8B4201D394463FE0C3098B42CE
:1004000001D3CB01C01A524183098B4201D38B0126
:10041000C01A524143098B4201D34B01C01A5241C9
:1004200003098B4201D30B01C01A5241C3088B420E
:1004300001D3CB00C01A524183088B4201D38B00F9
:10044000C01A524143088B4201D34B00C01A52419B
:10045000411A00D201465241104670475DE0CA0F72
:1004600000D04942031000D34042534000229C4632
:1004700003098B422DD3030A8B4212D3FC2289013C
:1004800012BA030A8B420CD3890192118B4208D312
:10049000890192118B4204D389013AD0921100E074
:1004A0008909C3098B4201D3CB01C01A5241830988
:1004B0008B4201D38B01C01A524143098B4201D3B5
:1004C0004B01C01A524103098B4201D30B01C01AE0
:1004D0005241C3088B4201D3CB00C01A524183085A
:1004E0008B4201D38B00C01A5241D9D243088B42B0
:1004F00001D34B00C01A5241411A00D20146634653
:1005000052415B10104601D34042002B00D54942B6
:10051000704763465B1000D3404201B50020C046DF
:10052000C04602BD704770477047FFB504460D4690
:1005300081B0243000902168880604D51022E0693B
:100540009143216000E00120A84201DD471B00E04B
:1005500000270498A1697A191018081AA061207858
:10056000C00602D42046C046C046002608E00398D4
:100570006268A168805D9047206A401C761C2062FA
:1005800004988642F3DB2078C0060AD52046C04690
:10059000C04606E06268A16830209047206A401C8F
:1005A000206238467F1E0028F4DC07E0009862686D
:1005B000A168405D9047206A401C206228466D1E5D
:1005C0000028F3DC2046C046C0462078000602D54D
:1005D000022005B0F0BD0120FBE70000084B70B51C
:1005E0000D467B4400F027F80446284600F0BBFA8D
:1005F000002802D00020C04370BD204670BD00001E
:100600008905000001468008081A02091018020A2C
:100610001018020C1018C008820012185200891A13
:1006200001E0401C0A390A29FBD2704701694A1CC3
:1006300002610878704700B58FB0029100210591E2
:100640000549019379440391114604906846FFF7E8
:1006500035FE0FB000BD0000E5FFFFFF754600F05E
:1006600025F8AE46050069465346C008C0008546D9
:1006700018B020B5FFF796FD60BC00274908B646C4
:100680000026C0C5C0C5C0C5C0C5C0C5C0C5C0C5A1
:10069000C0C5403D49008D46704710B50446C04670
:1006A000C0462046FFF756FD10BD000000487047C9
:1006B0006C0C002001491820ABBEFEE726000200AA
:1006C000704770B58D180478401CA207920F01D1B5
:1006D0000278401C231106D10378401C03E0067801
:1006E000401C0E70491C521EF9D1002B15D0027807
:1006F0000C2634408A1A401C0C2C03D0A401121B77
:100700009B1C08E004782402121B401CF8E71478B4
:100710000C70491C521C5B1EF9D5A942D3D3002092
:1007200070BD0000C10F8900064A89184968C306D8
:10073000DB0E01229A401143C20F9200014BD218E6
:100740005160704700020050F0B50B4600210024B4
:1007500000258603360E002E0FD00603B60FB60016
:10076000114FF51929688603370E8605F60EB74036
:100770000E46BE43164331462960C600360F002E92
:1007800010D04600B60FB600074F0C3FF419216891
:10079000C600370FC601F60EB7400E46BE431E43D5
:1007A00031462160F0BD00001C020050044604A048
:1007B000FFF714FD204600F08DFA00BFFEE70000B1
:1007C000496E2048617264204661756C74204861EE
:1007D0006E646C65720A0000C206D20E012191405F
:1007E000014A11607047000000E100E010B50028E8
:1007F00019DA1A4A03071B0F083B9B089B00D258C3
:100800008307DC0EFF23A3409A438B071B0E84074C
:10081000E40EA3401A43114B0407240F083CA4081C
:10082000A4001A5118E00E4A03231B02D2188308B1
:100830009B00D2588307DC0EFF23A3409A438B070B
:100840001B0E8407E40EA3401A43054B0324240225
:100850001B198408A4001A5110BD00001CED00E013
:1008600000E100E006E05920054908601620086014
:1008700088200860024800680128F4D17047000011
:100880000001005000B50346184600F001F800BD15
:1008900000BF054989690122920211400029F8D15F
:1008A000014908607047000000001540FEB50020B7
:1008B00002901C48456AC0012840002801D0002051
:1008C000FEBD012040042840002801D0164F00E062
:1008D000154F012000032840002801D0022000E02D
:1008E00001200190032000022840060A002E01D1B9
:1008F000022408E0012E01D1042404E0022E01D1DB
:10090000082400E01024A906890E20317943084606
:100910002146FFF75AFD00900199FFF756FD02901E
:100920000298CDE700020050001BB70002480068A3
:10093000401C014908607047000000203FB5024696
:10094000184D39CD694639C11748824206D117483A
:10095000406907231B021840010A19E0144882422B
:1009600006D11248406907231B031840010B0FE012
:100970001048824206D10D48806907231B021840A7
:10098000010A05E00948806907231B031840010B91
:10099000042904D288006B46185804B030BD0648BC
:1009A000FBE700007C0D0000000001400002005049
:1009B0000001014000001140001BB700FEB50546D4
:1009C0000F4616462846FFF7B9FF0446002001905F
:1009D00000906008B04202D20220019013E0012092
:1009E0004006844203D303200090A40806E00120BF
:1009F0000006844202D3012000906408314620465C
:100A0000FFF7E3FC01900198A860009868602F60F0
:100A1000009A521C0198504301462046FFF7D5FC2E
:100A2000FEBD000010B51348008813490880134824
:100A300001880088401C114A108048001049085A5B
:100A40000C4908800F480088002804D00846018817
:100A50000DA0FFF7C3FB094800880C49884202DD5E
:100A600000200649088000BF01200949086100BF35
:100A700010BD0000080000200A0000200600002031
:100A80000C0000200400002025640A002706000056
:100A90000000014006490968C8B2312802D101218D
:100AA000044A1180302802D10021024A1180704787
:100AB0000000154004000020F0B587B004460D4644
:100AC000224801460EC9C06802AE0EC605902048F5
:100AD00040698007800F06900698800002A90F5891
:100AE0001B48C0690F2109020840000A401C019000
:100AF000002F07D1FFF7DAFE00900199FFF765FCA0
:100B0000074604E038460199FFF75FFC07460020DE
:100B1000A0630320A060002D15D06908C8192946DC
:100B2000FFF753FC461E0B4886420BD9E900C81953
:100B30002946FFF74AFC0009401E0121C907084366
:100B4000606200E0666207B0F0BD00008C0D00003E
:100B500000020050FFFF000030380A2801D20120B7
:100B600070470020704701460020C043704730B5F1
:100B700004460D462046FFF785FE204630BD0000A6
:100B800010B511480088114908807D21C90010481E
:100B90000068FFF71AFC0446601E0E49884200D91F
:100BA0000CE0601E0C4948610321081FFFF71EFE80
:100BB0000020094988610720086100BF00F040F863
:100BC000782000F00BF810BD0C0000200800002079
:100BD000640C0020FFFFFF0000E000E010B50446B9
:100BE000FFF740FE1348FFF79DFD00220121890217
:100BF0001048FFF7A9FD00BF00200F49086000BFA3
:100C0000224610210D48FFF7D9FE00BF0B480068AF
:100C1000012108430949086000BF00BF0846C068B9
:100C2000012108430549C86000BF0820FFF7D4FD33
:100C300010BD0000023D84AE0001005000000140E4
:100C400010B5FFF70FFE1E48FFF76CFD00220321D1
:100C50001B48FFF779FD05200007806B0721090479
:100C600088430521090788630846806B0121090430
:100C700008430521090788630846806B0721090599
:100C800088430521090788630846806B012109050F
:100C9000084305210907886300BF0020094908604F
:100CA00000BF4B21C9010848FFF706FF0648C0688E
:100CB000012108430449C8600D20FFF78DFD10BDD8
:100CC000113D00A60001005000001540FFF758FF3D
:100CD00000BFFEE710B5044610A02168FFF77EFABA
:100CE00011A06168FFF77AFA12A0A168FFF776FAFF
:100CF00013A0E168FFF772FA14A02169FFF76EFAFA
:100D000015A06169FFF76AFA16A0A169FFF766FAF4
:100D100017A0E169FFF762FA10BD000072302020D1
:100D20003D20307825780A00723120203D2030782F
:100D300025780A00723220203D20307825780A007C
:100D4000723320203D20307825780A00723132201D
:100D50003D20307825780A006C7220203D203078C4
:100D600025780A00706320203D20307825780A001D
:100D7000707372203D20307825780A00001BB70080
:100D8000008000001027000000000000001BB700DA
:100D90000080000000000000001BB700001BB7002F
:100DA0000080000000000000001BB700001BB7001F
:100DB0000080000000000000001BB700303132331B
:100DC000343536373839414243444546403058007F
:100DD00030313233343536373839616263646566B1
:100DE00040307800040E0000000000206C0C000071
:100DF000C2060000F41900006C0C0020640A000018
:100E00000401000012000143010001101AFE061740
:100E1000081607FD072C0702082A0714080F07E227
:100E2000070007D407360C100A1A07120802071D1C
:100E3000081104101A51070808200723082F07304B
:100E4000083B07030856073D0853073B086B04108F
:100E50009A45075D085907500881079B08D007F19C
:100E600008F5078F087F0786083707290848070C09
:100E7000085C0727084A0753080C07DC089B090A87
:100E80000D8F0D45096A05FD068406B10744076C00
:100E90000873077908820797087B076A088407DACE
:100EA00008C107B4080708E4085C08330962086849
:100EB000098B08B209B408E7092B092A0A0909179E
:100EC0000A3609E6097A083609DF07650861071C52
:100ED000081707DE07FF06E7070607DB07DE060041
:100EE00008040713080E07DD0713C410083007FFB6
:100EF00007F70624A4120F9010042E083D1C1212AE
:100F0000D010161B071008EC0611083A071B081E24
:100F1000072D081907F4075FCC10062F072B08448C
:100F20003810043F0721E810064808430735E01051
:100F3000044508586C1444690744085A074308805C
:100F4000076B087A0761089B07B608B907E808FC31
:100F5000078A0888077C086707540846073A082C60
:100F6000073F083507F90775078509A60AA60E2C5D
:100F70000BF806A8055B078D060334300A55087880
:100F80000769084907574810069A077D08C2F014F8
:100F900028B207F40806080B0922087709B208BF2F
:100FA00009AB08E3090009150A2109200AEB08AB7F
:100FB000096C08E508A507734814142A08E306F32A
:100FC000072907D9072307D607EC06F50709981064
:100FD0000A1907D5072F070B082E201004FB06401F
:100FE000C81201D81223B01408020834071F0829B8
:100FF00084140428072808120EF4140419084E0853
:1010000010041B075690166ABC1253EC1006040815
:10101000A20738FC140428083CDC168FC012930485
:10102000140CD707E308D6076E08A1077FF416173C
:10103000501254BC162AF0160BE010121809260A9A
:10104000750EA10BAE07FB0571079B06DA84160D22
:10105000FC1A65181A8204143268089707C408A39A
:10106000078C08E007F30800081909480850096BC5
:1010700008A209E408D0090909F0090309EB09CD20
:1010800008920937081F09BC074964122BB0100ADF
:10109000EA07FA0601082307E808100606081507FC
:1010A000E5F030040E080AC410041A08408810083D
:1010B0004A07FB071707250C180418081CA8140674
:1010C00029070A081D741A36A012420C14043107AD
:1010D00009BC1404090838C81804280724A01639C4
:1010E000BC10042D0887441A27B010047D0751FC5A
:1010F00010085608C507A208DFA41404C0075FE063
:101100001245301808E807510705082120163F103E
:1011100010126B08970BBB0D140C40068A065C0678
:101120007207104C1A45241658341004A40759406D
:10113000142C9808C8079608BE07CA08EB072209AE
:101140002C08F30852089C09C708C1092609C209DE
:101150002409220A3709A509A9083909E808128EC5
:10116000DC1C04F606FC640312BD081410C807EF6B
:1011700006B907D006CA07FC06D007188416DBDCC0
:101180001C0A0D07C5073C07F7071198031254E81E
:1011900014061207F2070B041A27E812059C162AF8
:1011A0006418043D07F800100426084FEC29DC1EE3
:1011B0005908031E6898031A4CD01A6484140857FF
:1011C00007310872073CE816258C18046F08B3A095
:1011D0001804A807CE641C04BD0879AC031692104D
:1011E0001637381E5820031E6AE0031806490762A6
:1011F00009DDAC140AEF0AD706A105700796CC1ECC
:101200007504031A4FE81008A4075B08AA07644096
:101210001E90E0031420B7081508D3085A080709E0
:101220004E086309C8087D090E09FB094C09070A25
:1012300048091C0AFFDC10087D08F408BF0766A4F3
:101240001804F9073598100C2007A507F906CE07F2
:101250001A07B2D416EDA412DED41E13900312CFD7
:10126000EC1EFA0404140ADA071D07F3075607C137
:101270000412FD301004EB07421C10061D07FE0788
:101280001E08123F3414085C07E4075707E99C1254
:10129000E6081C04F5073A540414066307CC0786D5
:1012A000DC14064B073308710C167F341AA4A018FF
:1012B00008F207C00805087EB81E39B8041E007081
:1012C000031C0413081F88041E7D0C031416B407A6
:1012D0008909360BA70E0D0AB4063D068C07A80631
:1012E000CD0779341A881C169AD81ECB84041806A8
:1012F000AA077708D9182417F007BE085908F60876
:1013000074085C099B087E09F908B809E308D01045
:101310000CA30916094D095E089808D570169A4461
:101320001A309810064307B8072E7010043707EFDD
:10133000101004DB0774C8124F0C18066C07D7078F
:1013400073B4140442074FA01C04EA077F6C041016
:101350000A3B07E0076107C7078FD41652C01E6A11
:1013600054051E5B78041E515803128E041244ACBF
:101370001694BC1299F81C0648073708CF8C041045
:1013800008E107A4080308610C1E2A780510040967
:101390000855601245381E6AF8041E7644041C1273
:1013A0006209480D3D0DDD08B705FE06CD0678073C
:1013B000A7EC0312789812C060169AC016BCC81A1F
:1013C000FB0C1C26D107C8081908B30880081309AC
:1013D000BF086E09FB08C2095B09F6092809A709BD
:1013E0001F09890987088A08DC64031E57640410F2
:1013F0000A6307990733079F0725C410102507B113
:10140000071F0795073E07B9073707B3041008C53C
:10141000074B07C40767E014044B0793941A033083
:10142000100CD3074E07A3074D07AE075D181240F7
:10143000F010045C07CB481AC8681004100850204C
:101440001C066D07DC078070051293601A6AD016BF
:1014500086E41C06A9072C08FA18051C04FF078B54
:10146000900318061A08830711B41C04A107550439
:101470000421881C046D07E3B6031410AD0AA20D05
:101480003B0DF3063F0681061F070E5816D6301295
:10149000B94C1E9B9C0516EC601AE2AC1C1E0008A1
:1014A0008C084508B8086608F108DD0867092509B1
:1014B0008B093109D8098709EC09518C031C080DE7
:1014C000091509430834BC051004E40782021A3EDA
:1014D00036180855079607150785581004AF0739C1
:1014E000F410045007DFBC16BBAC1EAA8403100422
:1014F000AF0765B810046A07BF221408C2076B075C
:10150000BC07580012810C1A98841663081C0E7CC4
:1015100007C3077707B507A007BE078B44071A95CF
:101520008C127DA01406CE07C6077EE41A97641AB3
:10153000B9A01EE88406140E280885082108620850
:10154000F107F007870C168D3012AA0C14186E07DD
:101550008C0784073709E20A3D0E360B9A061906F6
:10156000FD06D506741C1C04BF076F940712EB58C8
:101570001EEDB80616D02C10281E082D084208A112
:10158000085308B70892080209EE085B093E09A64D
:10159000099E09E9098F0996097A0945098408898C
:1015A0006C12D4861004BC078ACC126B8A1675C4E0
:1015B000126D721266B012A0A61E7F44061A9D3EDE
:1015C000129FD012BC0412A18C1EA270051A9FCCCF
:1015D00010069307A807AC9E1A8DA6129EAC100A9F
:1015E000A707B607A607D207915214068C07C007B3
:1015F000C9D816E7E81C04C307E1AA03162D781E14
:101600005E760310064D080108FE1E16AC5618083B
:101610008C079A07B707B0221E7D2C071C0E510AB3
:101620008B0D750C77072406F40600DA031E9DF077
:101630000316C91A1A90341A04721EFC00031EE025
:10164000C0041C0842085F0875087166041C1CB8B9
:1016500008F80811093309790954096C099C098EA5
:10166000093909D408D8086808FD4C0416AF9E1C37
:10167000089F0762075B077160031A5F2E1E517097
:10168000031685801269181A4364126D5C1E646625
:10169000031276C21281DC127294126FE41680106B
:1016A0001276E21A98CA14047907ADBE129F421648
:1016B000CE1C16CE8225F612E3BE1404E407D176C2
:1016C0001E879A041C109B070608EE0752080C0898
:1016D00081083F0849EE0516EF521AD80E16E2BAF5
:1016E000259E12A5E81410A909160C4D0EBA09384A
:1016F0000620061D071B721669B41E8FAA0512C3A9
:10170000DC1ED1A2041ED012091C0E1B088E083349
:101710000883086708CB08C8E2081C10310944098F
:101720005D09AA095309DF098209BD12071E254276
:10173000051A95C61AC8121ED33E051285E41C046C
:10174000A007197603121EC41E5A7A031E0B320517
:101750001E60FE041E69E6081667461247AA1E4F61
:1017600066032D5E041E765A031A88821E651609CA
:101770001648B4164BB83E58B2091E0AE60516E1E3
:10178000001C0400085D660418047A07EE6E180653
:101790000D087E07F18610042208893C1C0474079A
:1017A0003446031E537E091EAFB207135F087E1D29
:1017B0002A061E33660716D3081406FB074607ECF5
:1017C000441C149A09CC0BD30EC5092006040665E7
:1017D00007E706D4077B1E0A1A99E21C069C0740FD
:1017E00008CA2E0812C2081004FD07BFEC1C08C16D
:1017F000086F082809782A061C040E09AC0E071C7D
:1018000004F1093DC2091C0C6A09F80921094F09B4
:101810005308A79A061E1A76071004DF0731EC1A40
:10182000155E1A3B681004E706D1E41C069307BC5A
:1018300006ECFE051ED7260616E6001ED3EA081E95
:10184000CE76041EB926061C04E40738A60A1E0E2E
:101850000A071E1AAA031E4C7A031204C81E3B1A5A
:10186000061645AC1259E81667041C044607070E15
:10187000071E2C7E0A1E35F6061E19FE071E2A8636
:10188000051C042B0874D2091C06F607C108E7E200
:10189000051ED37E0A1E7CDE06123B40122D24124A
:1018A00053F01C100F0785080909640CAE0D6B0A74
:1018B0001C06EFAA0A1A79B01E390E071004330865
:1018C0008B041E73F2091E8FBA0A1C04CE07BB9A42
:1018D000051EC5B6041E11FA07101848097E0882B5
:1018E00009DC08BA092209E7090B09F7091B09D520
:1018F000098A181EF5DA0A1C045C074D56081C06F6
:10190000D007FB06F6BA081207B81C04EE07072A30
:10191000061E2F2E0A1E082E061E17C6081E239A04
:10192000091A332C1E287A0A1E126E0B1A21341C37
:1019300004F5061E760B1404EE070328122F041E6E
:101940000AF6071E1912061C0A130736083E072F4F
:10195000082586081E25820B1E53DA081E15A20ACA
:101960001C0853077B08BB07A32E0A12C89C1EAA9B
:10197000960A1E2ECA0A1E2BF60A1C041B0801BA60
:10198000091E461A0A1C14F207890AF40CD30D2604
:1019900007B60653067E07D4062516091E497E069D
:1019A0001E94C60A1C068E089007D626081C10AA8C
:1019B00008AB07FF08EA070709CF07680976B609E9
:1019C000101CD008E90908093C0A3209440AEF084A
:1019D0000B0ABE087309EB07E0086507785C5C0535
:1019E0000908F806570C000A0000001BB7000C009D
:0419F00000000000F3
:040000050000017D79
:00000001FF
